:0400000070EF00F0AD
:100008004D82FACF05F0FBCF06F0E9CF07F0EACF33
:1000180008F0E1CF09F0E2CF0AF0D9CF0BF0DACF40
:100028000CF0F3CF0DF0F4CF0EF0F6CF0FF0F7CFC2
:1000380010F0F8CF11F0F5CF12F0F2B6F2A00FD011
:1000480081B802D0010E01D0000E3D6E3E6A81BA21
:1000580002D0010E01D0000E3B6E3C6A1CD0F0A607
:1000680002D0F0B003D0F0B8F0A215D00C0E19EC05
:1000780007F04A6E1E0E19EC07F0496E220E19ECB5
:1000880007F0486EF0A003D0010E4C6E04D0F0A229
:1000980002D0010E4B6EF290F090F09212C0F5FF74
:1000A80011C0F8FF10C0F7FF0FC0F6FF0EC0F4FF35
:1000B8000DC0F3FF0CC0DAFF0BC0D9FF0AC0E2FF86
:1000C80009C0E1FF08C0EAFF07C0E9FF06C0FBFF5F
:1000D80005C0FAFF4D921100ACEF07F0F29EDED09A
:1000E800F2EC02F08D824050D8B45CD08D948D90A3
:1000F800000E8B6E000E896E38BE06D0385003E1B4
:10010800110E375CD8B08D8038BE08D0385004E165
:10011800310E375CD8A002D0800E896E38BE08D068
:10012800385004E1510E375CD8A002D0C00E896E59
:1001380038BE08D0385004E1710E375CD8A002D020
:10014800E00E896E38BE08D0385004E1910E375C55
:10015800D8A002D0F00E896E38BE08D0385004E11D
:10016800B10E375CD8A002D0F80E896E38BE07D021
:100178003704010E3858D8A002D0FC0E896E38BE5C
:1001880008D0810E375C010E3858D8A002D0FE0E78
:10019800896E38BE83D03704020E3858D8A07ED076
:1001A80089687CD0660E226E660E236E3F0E246E22
:1001B800F00E37241B6EFF0E38201C6ECBEC06F0B9
:1001C8001BC01FF01CC020F01DC021F074EC03F010
:1001D8001FC02EF020C02FF021C030F05BEC02F0E1
:1001E8002EC037F02FC038F08D908D94000E896E98
:1001F800000E8B6E38BE06D0385003E1110E375C06
:10020800D8B08D8438BE08D0385004E1310E375C40
:10021800D8A002D0010E8B6E38BE08D0385004E149
:10022800510E375CD8A002D0030E8B6E38BE08D0B2
:10023800385004E1710E375CD8A002D0070E8B6EDF
:1002480038BE08D0385004E1910E375CD8A002D0EF
:100258000F0E8B6E38BE08D0385004E1B10E375CF3
:10026800D8A002D01F0E8B6E38BE07D03704010EFF
:100278003858D8A002D03F0E8B6E38BE08D0810EF9
:10028800375C010E3858D8A002D07F0E8B6E38BE6E
:1002980005D03704020E3858D8B08B6881A820D70B
:1002A8003ABE06D03A5003E1910E395CD8B018D75F
:1002B80081A81200CDEC07F0F290000E3E6E000E01
:1002C8003D6EF28E010E136E000E146E000E156E4A
:1002D800000E166EAAEC06F0120082EC07F040EC55
:1002E80006F081A881BA12D08D808D828D848968AC
:1002F8008B680A0E136E000E146E000E156E000E3B
:10030800166EAAEC06F081AA29D0FDD781B812D0C2
:100318008D82AA0E896E550E8B6E0A0E136E000E14
:10032800146E000E156E000E166EAAEC06F081AA69
:1003380015D0FDD781BA12D08D808D84550E896E67
:10034800AA0E8B6E0A0E136E000E146E000E156E3A
:10035800000E166EAAEC06F081BAFED7000E896E62
:10036800000E8B6E8D82000E346E000E336E34BE1E
:1003780006D0345039E10A0E335CD8B035D08DB090
:1003880003D0326A322A01D0326A8D503218FE0BFD
:1003980032188D6E8DB203D0326A322A01D0326A99
:1003A80032468D503218FD0B32188D6E8DB403D045
:1003B800326A322A01D0326A324632468D503218B9
:1003C800FB0B32188D6E010E136E000E146E000EAC
:1003D800156E000E166EAAEC06F0334A342A34BEA7
:1003E800CED7345001E1C7D78D908D928D940D0EE4
:1003F80000EC07F04A6E2A0E4A18D8A406D0000E60
:10040800196E020E82EC06F003D04AC089FFFFD7AE
:10041800F290F090F092000E3E6E000E3D6E000ECF
:100428003C6E000E3B6E000E4C6E000E4B6EF28E54
:100438003ABE09D03A5004E1910E395CD8A003D0F5
:1004480072EC00F0F5D73D503E10D8B40BD0000E3A
:100458001D6E030E1C6E57EC04F0000E3E6E000E6F
:100468003D6EE6D73B503C10D8B40BD0000E1D6E45
:10047800060E1C6EFAEC05F0000E3C6E000E3B6E8C
:10048800D7D74C50D8B409D0000E1D6E010E1C6E83
:1004980057EC04F0000E4C6ECBD74B50D8B405D0B7
:1004A80017EC05F0000E4B6EC3D70300C1D730C060
:1004B80060F00001616B626B2F340001603701E36B
:1004C80061810001605100016A6F00016A51D8A47E
:1004D80009D0000E2E6E000E2F6E000E306E000E2C
:1004E800316E1200170E0001606F2EC061F02FC030
:1004F80062F030C063F0000160290001646F05D02C
:100508000001D8906333623361330001642FF8D758
:10051800000161510001656F2F8EFF0E2E16FF0E30
:100528002F16000E30162E500001666F2F50000156
:10053800676F30500001686F0001696B8E0E000113
:100548006A5F00016AAF19D000016A51800A8F0FF3
:10055800D8B009D0000E2E6E000E2F6E000E306E31
:10056800000E316E12000001D8906933683367338A
:10057800663300016A3FF7D71AD0170E00016A6583
:1005880011D0000E2E6E000E2F6E000E306E000E73
:10059800316E12000001D8906637673768376937BF
:1005A80000016A0700016A510001D8A4F3D70001CD
:1005B80065510001D8B409D00001691F681F671F81
:1005C800666D000E67236823692366C02EF067C036
:1005D8002FF068C030F069C031F01200010E00EC55
:1005E80007F0476E020E00EC07F0466E030E00ECB3
:1005F80007F0456E040E00EC07F0446E050E00ECA3
:1006080007F0436E060E00EC07F0426E47AE08D0C6
:10061800010E416E47500008186E1804476E02D04C
:10062800000E416E46C018F0183A0F0E18164750C3
:10063800196E1A6A193A1A3AF00E1A1619500F0B4F
:100648001A12F00E191618501924396E000E1A20B5
:100658003A6E45AE08D0010E406E45500008186E3F
:100668001804456E02D0000E406E44C018F0183AC7
:100678000F0E18164550196E1A6A193A1A3AF00EE2
:100688001A1619500F0B1A12F00E191618501924B1
:10069800376E000E1A20386E43AE08D0010E3F6E3A
:1006A80043500008186E1804436E02D0000E3F6EC7
:1006B80042C018F0183A0F0E18164350196E1A6AED
:1006C800193A1A3AF00E1A1619500F0B1A12F00EA0
:1006D800191618501924356E000E1A20366E12009D
:1006E80021C025F0266A276A2034253601E32680B2
:1006F8002550286E2850D8A407D0000E1F6E000E73
:10070800206E000E216E120024C025F0266A276A8A
:100718002334253601E3268025502D6E2D50D8A48C
:1007280007D0000E1F6E000E206E000E216E120004
:100738002D507B0F282621C02DF024502D1A800E15
:100748002D16208E238EFF0E2216FF0E2316000E66
:100758002416000E296E000E2A6E000E2B6E070E50
:100768002C6E1FA006D02250292623502A2224505E
:100778002B22D890213220321F32D89022362336AD
:1007880024362C2EEED7090E2C6E1FA006D0225030
:10079800292623502A2224502B22D8902132203275
:1007A8001F32D8902B322A3229322C2EEED729C06C
:1007B80013F02AC014F02BC015F028C016F02DC075
:1007C80017F0C0EC04F013C01FF014C020F015C0DF
:1007D80021F01200000E206E000E1F6E56D08D9074
:1007E8008D828D94010E896E800E8B6E010E136EB4
:1007F800000E146E000E156E000E166EAAEC06F0B2
:10080800000E226E000E216E22BE06D022503BE161
:10081800080E215CD8B037D089508924896ED890C9
:100828008B308B6E8DB003D01E6A1E2A01D01E6AD3
:100838008D501E18FE0B1E188D6E8DB203D01E6AC9
:100848001E2A01D01E6A1E468D501E18FD0B1E184A
:100858008D6E8DB403D01E6A1E2A01D01E6A1E46F4
:100868001E468D501E18FB0B1E188D6E010E136E42
:10087800000E146E000E156E000E166EAAEC06F031
:10088800214A222AC1D71F4A202A1C501F5C205007
:10089800800A1E6E1D50800A1E58D8A0A0D78D90C1
:1008A8008D928D941200000E206E000E1F6E56D091
:1008B8008D808D928D84800E896E010E8B6E010E57
:1008C800136E000E146E000E156E000E166EAAEC56
:1008D80006F0000E226E000E216E22BE06D02250B7
:1008E8003BE1080E215CD8B037D0D8908930896EAA
:1008F8008B508B248B6E8DB003D01E6A1E2A01D0BC
:100908001E6A8D501E18FE0B1E188D6E8DB203D0F8
:100918001E6A1E2A01D01E6A1E468D501E18FD0B27
:100928001E188D6E8DB403D01E6A1E2A01D01E6A51
:100938001E461E468D501E18FB0B1E188D6E010E8E
:10094800136E000E146E000E156E000E166EAAECD5
:1009580006F0214A222AC1D71F4A202A1C501F5CB0
:100968002050800A1E6E1D50800A1E58D8A0A0D79D
:100978008D908D928D9412001650D8B405D01350D6
:1009880014101510D8A40CD0000E136E000E146E9F
:10099800000E156E1200162AD89015321432133232
:1009A800000E1314186E000E1414196EFE0E151492
:1009B8001A6E185019101A10D8B40CD0ECD7162A81
:1009C800010E1326000E1422000E1522D89015329F
:1009D80014321332000E1314186E000E1414196E0C
:1009E800FF0E15141A6E185019101A10D8B406D024
:1009F800E6D71606D89013361436153614BE03D02B
:100A0800020E1660F6D716A0149ED890163216500D
:100A180015121750D8A4158E13C013F014C014F073
:100A280015C015F01200F2EC02F048AC16D0000E1A
:100A38001D6E050E1C6E32EC07F048A407D0000EA0
:100A48001D6E020E1C6EB1EC05F01200000E1D6E3C
:100A5800020E1C6E68EC05F0120048AA16D0000EB3
:100A68001D6E050E1C6EE7EC06F048A207D0000EBE
:100A78001D6E020E1C6EB1EC05F01200000E1D6E0C
:100A8800020E1C6E68EC05F0120048A816D0000E85
:100A98001D6E050E1C6E4AEC07F048A007D0000E2C
:100AA8001D6E020E1C6EB1EC05F01200000E1D6EDC
:100AB800020E1C6E68EC05F01200000E1D6E010E91
:100AC8001C6EEEEC03F012008B68D00E1E6ECA0E80
:100AD800E82EFED71E2EFCD7D00E1E6ECA0EE82EAC
:100AE800FED71E2EFCD7000E206E000E1F6E28D0DB
:100AF800010E136E000E146E000E156E000E166EAB
:100B0800AAEC06F0000E226E000E216E22BE06D060
:100B1800225014E1080E215CD8B010D08B508B24E1
:100B28008B6E010E136E000E146E000E156E000E05
:100B3800166EAAEC06F0214A222AE8D71F4A202A74
:100B48001C501F5C2050800A1E6E1D50800A1E58C3
:100B5800D8A0CED7000E8B6E12008968D00E1E6EFC
:100B6800CA0EE82EFED71E2EFCD7D00E1E6ECA0E59
:100B7800E82EFED71E2EFCD7000E206E000E1F6E2C
:100B880028D0010E136E000E146E000E156E000EA6
:100B9800166EAAEC06F0000E226E000E216E22BE22
:100BA80006D0225014E1080E215CD8B010D0D8909D
:100BB8008930896E010E136E000E146E000E156ECC
:100BC800000E166EAAEC06F0214A222AE8D71F4A20
:100BD800202A1C501F5C2050800A1E6E1D50800A5F
:100BE8001E58D8A0CED7000E896E1200000E206EB7
:100BF800000E1F6E32D0550E8B6E020E136E000E55
:100C0800146E000E156E000E166EAAEC06F0AA0EF3
:100C1800896E050E136E000E146E000E156E000E12
:100C2800166EAAEC06F0550E896E020E136E000EB3
:100C3800146E000E156E000E166EAAEC06F0AA0EC3
:100C48008B6E050E136E000E146E000E156E000EE0
:100C5800166EAAEC06F01F4A202A1C501F5C205072
:100C6800800A1E6E1D50800A1E58D8A0C4D7000ED8
:100C7800896E000E8B6E1200000E926E000E936E3F
:100C8800000E946E000E956E000E966E000E896E24
:100C9800000E8A6E000E8B6E000E8C6E000E8D6E2E
:100CA800000E0F01386F000E0F01396F000E0F0193
:100CB8003A6F000E0F013B6F000E0F013C6F938AD5
:100CC8009388938293846188618A61926194F19E8A
:100CD800D09E000EF26EF18AF1886288628AF290E4
:100CE800F090F092F086F088F286958095829F0EBB
:100CF8006E6E6D8E6C8A280E6C6E1200B7EC07F063
:100D08001F0E166E1D0E62EC07F07F0E166E210E7A
:100D180062EC07F0580E166E2A0E62EC07F01F0EF2
:100D2800166E2B0E62EC07F0520E166E2C0E62EC4D
:100D380007F0A80E166E2D0E62EC07F0A10E166EC7
:100D48002E0E62EC07F0C2EC07F01200000E186ECF
:100D5800000E196E000E1A6E000E1B6E0DD0D00E0E
:100D6800176ECA0EE82EFED7172EFCD7010E1826CE
:100D7800000E19221A221B221350185C14501958FD
:100D880015501A5816501B58D8B01200E8D7000E44
:100D98001E6E1CAE06D01B6C1C1ED8B01C2A010E81
:100DA8001E6E1BC013F01CC014F0156A8E0E166E52
:100DB8001EC017F0C0EC04F013C01BF014C01CF0E8
:100DC80015C01DF012008D808D84550E896EAA0EF7
:100DD8008B6E1CC013F01DC014F0000E14BEFF0E65
:100DE800156E166EAAEC06F08D908D928D94000EFD
:100DF800896E000E8B6E1200166E6B806BB0FED77C
:100E08003A0EA0EC07F01650A0EC07F06B826BB21C
:100E1800FED73B0EA0EC07F0000E73EC07F0176E40
:100E28006B846BB4FED717501200036E6B806BB0E7
:100E3800FED73A0ED5EC07F00350D5EC07F06B82DD
:100E48006BB2FED73B0ED5EC07F0000E91EC07F025
:100E5800046E6B846BB4FED7045012008D808D82B3
:100E68008D8489688B681CC013F01DC014F0000EB7
:100E780014BEFF0E156E166EAAEC06F08D908D92BC
:100E88008D94000E896E000E8B6E12008D82AA0E54
:100E9800896E550E8B6E1CC013F01DC014F0000E29
:100EA80014BEFF0E156E166EAAEC06F08D908D928C
:100EB8008D94000E896E000E8B6E1200176E6B807B
:100EC8006BB0FED73A0EA0EC07F01750A0EC07F075
:100ED8001650A0EC07F06B846BA41200FDD7136EBC
:100EE8006B866BB6FED76FCF14F01304D8A404D06A
:100EF8006B9A6B886BB8FED714501200D39ED38CB4
:100F0800D38AD388D396D382D390D28ED29CD298C8
:100F1800D296D2849B8E9B8C1200016E6B866BB628
:100F2800FED76FCF02F00104D8A404D06B9A6B8867
:100F38006BB8FED702501200156E15C06FFF6DB466
:100F4800FED76BBCFED7000E146E000E136E120097
:100F580000EE35F0180EEE6AE806FDE14D904D9270
:100F6800000171EF01F02A0E00EC07F0186E18501E
:100F7800FE0B166E2A0E62EC07F012002A0E00EC29
:100F880007F0186E18500109166E2A0E62EC07F069
:100F980012008D908D928D94000E896E000E8B6ECE
:100FA8001200016E01C06FFF6DB4FED76BAC12006A
:020FB800FDD763
:020000040020DA
:08000000FFFFFFFFFFFFFFFF00
:020000040030CA
:0E000000FF38193CFF3580FF0FC00FE00F40A6
:00000001FF
